:03000000020006F5
:10005F007510A375116B75120C75138F7514FC75D4
:10006F00155075160B751733751813751933751AD7
:10007F0036751B41751C2A751D79751E85751F9266
:0C008F00752400752900752A000200038A
:0300030002043EB6
:10009B00E4F508F509F50AF50BF50CF50DF50EF57C
:1000AB000F22752B00E52B252B25E02410FF252B8C
:1000BB00F876FFE52B241CF876FF752C00E52B2535
:1000CB002B25E0FF2410252CF9E7FE30E735E52C36
:1000DB00B52B02802EEF2410252CF98706BEFF02CC
:1000EB008021EF2410FF252CF9E52C2FF88607C370
:1000FB00E49FF7E52C252C25E02410FF252BF87623
:10010B00FF801EE52C252C25E02410252BF9E7FF7D
:10011B0020E70EE52B252B25E02410FF252CF87668
:10012B00FF052C74FC252C40030200C8052B74FC26
:10013B00252B40030200B022752B00E52B2425F85C
:10014B0076FF052B74FC252B50F122C02D85812DBC
:10015B00E5822420F8E52D24FDF9E7F60524D02DC2
:10016B00227F7F752B00E52B2420F98706C3EF64D4
:10017B00808EF063F08095F04008EE60058E078569
:10018B002B29052B74FC252B50DC1524E529242069
:10019B00F8760022752B00E52B7004F510800EE528
:1001AB002B252B25E02410FF252BF8767F052B74B0
:1001BB00FC252B50E222AF82C374808FF063F0805A
:1001CB0095F050048F068004C3E49FFE8E8222C0FC
:1001DB002D85812DAF82E52D24FDF8E625E025E068
:1001EB002410FE2FF98707C3747F8FF063F080957F
:1001FB00F05005758201801F7582FE1201C1AF821E
:10020B00E52D24FCF8E624FEF582C0071201C1AEF1
:10021B0082D007EE2FF582D02D22C02DE581F52D52
:10022B002405F581AF82C00712019FE4C0E07582FF
:10023B00001201561581D007C374808524F063F03A
:10024B008095F04003020438C00712016CD007E51B
:10025B002D24FDF8E6B52903020438752B00C3E500
:10026B002B9F50D4E52975F004A4FDAEF0E52D24A9
:10027B00FAF8ED26FAEE0836FB088604E52B2AFA87
:10028B00E43BFB8A828B838CF012047BFABAFF036C
:10029B00020433C007E52D24FAF8A92D09ED26F742
:1002AB00EE083609F70809E6F7A82D08E52926FB1D
:1002BB00E40836FC0886078B828C838FF012047B54
:1002CB00FBE52D2404F8A603EB3395E008F6A82DE7
:1002DB0008E52B26FAE40836FC0886078A828C830D
:1002EB008FF012047BFA3395E0FFE52D2404F8A977
:1002FB002D09EA26F7EF083609F7E52D2404F8E572
:10030B002B75F004A4F608A6F0E52D24FAF8E52DDC
:10031B002404F9E726FB09E70836FC088607E52BDA
:10032B002BFBE43CFC8B828C838FF012047BFB3326
:10033B0095E0FFA82D08C3E69B08E664808FF06369
:10034B00F08095F0D0074003020433C007E52D245D
:10035B00FAF8E52D2404F9E726FA09E70836FB0835
:10036B008604A82D08E52B2AF6E43B08F608A6041C
:10037B00E52D24FAF8ED26FDEE0836FE088607E596
:10038B00292DFAE43EFB8F04E52B2DFDE43EFE8D7B
:10039B00828E838FF012047BFD8A828B838CF0120A
:1003AB00047B2DFDA82D0886820886830886F0ED38
:1003BB00120460E52B75F004A4FEAFF0E52D24FAD2
:1003CB00F8EE26FEEF0836FF088605E52B2EFAE43D
:1003DB003FFB8D04E52B2EFEE43FFF8E828F838D3A
:1003EB00F012047BFEC004C003C002C006C02BE5A4
:1003FB002D24FDF886821201DAAF8215811581D08A
:10040B0002D003D0048A828B838CF012047B2FF5ED
:10041B002AC007C02A852B821201561581D007E509
:10042B002B2425F8A629D007052B020269852D81DF
:10043B00D02D221200AD7410C0E07400C0E07440E7
:10044B00C0E07445C0E0758204120225E58124FCEE
:05045B00F58102009B89
:06003500E4787FF6D8FD1F
:100013007900E94400601B7A0090049B780175A085
:1000230000E493F2A308B8000205A0D9F4DAF2754C
:02003300A0FF2C
:1004600020F71130F6138883A88220F509F6A883B7
:0B0470007583002280FEF280F5F02270
:10003B007800E84400600A790175A000E4F309D860
:10004B00FC7800E84400600C7900900001E4F0A318
:04005B00D8FCD9FAFA
:0D00060075812D120497E58260030200034E
:10047B0020F71430F6148883A88220F507E6A883AA
:10048B0075830022E280F7E49322E022758200223A
:00000001FF
